:100000000C94791B0C94AA1B0C94AA1B0C94AA1B8D
:100010000C94AA1B0C94AA1B0C94AA1B0C94AA1B4C
:100020000C94AA1B0C94AA1B0C94AA1B0C94AA1B3C
:100030000C94AA1B0C940E9F0C94AA1B0C94AA1B44
:100040000C94AA1B0C9497300C94AA1B0C94AA1B1A
:100050000C94AA1B0C94AA1B0C949F2E0C94E2AF38
:100060000C94AA1B0C9409D50C94FFD40C94AA1BD5
:100070000C94AA1B0C94AA1B0C94AA1B0C94AA1BEC
:100080000C94AA1B0C94AA1B0C94AA1B0C94AA1BDC
:100090000C94AA1B0C94AA1B0C94AA1B0C94AA1BCC
:1000A0000C94AA1B0C94AA1B0C94AA1B0C94AA1BBC
:1000B0000C94AA1B0C94AA1B0C94AA1B0C94AA1BAC
:1000C0000C94AA1B0C94AA1B0C94AA1B0C94AA1B9C
:1000D0000C94AA1B0C94AA1B0C94DB5E0C949C5EE3
:1000E0000C94AA1B084AD73B3BCE016E84BCBFFDD3
:1000F000C12F3D6C74319ABD56833DDA3D00C77FF8
:1001000011BED9E4BB4C3E916BAAAABE0000008090
:100110003F05A84CCDB2D44EB93836A9020C50B91F
:10012000918688083CA6AAAA2ABE000000803F004B
:100130000C9430200C947AA00C944FA50C9429A018
:100140000C9468A40C9421A00C942F7B0C94477BF6
:100150000C941CAB0C9454A00C948CAB0C948CA7FA
:100160000C9443D50C94D1EA0C944CA00C945D20D3
:100170000C943D7B0C94337B0C949DA00C94D8AADA
:100180000C94A3D50C94C97A0C949BD50C94B7A568
:100190000C94B8A40C94557B0C94547B0C9438A00C
:1001A0000C9427A80C9455B10C94DEA80C944DA483
:1001B0000C9440A90C94A7A00C941A7B0C94F3EA1D
:1001C0000C94EF1F0C94227B0C94BBA00C941AA4EB
:1001D0000C9489A70C9489A00C9481D50C94EDA75C
:1001E0000C94147B0C94A2A40C944F7B0C94ABD570
:1001F0000C9495A80C94EFA80C9476200C94267B74
:100200000C941E7B0C94417B0C948C200C9472D526
:100210000C9480AF0C9497D50C94BCA80C94A1A618
:100220000C9493D50C948BA90C942EA00C9493A0B1
:100230000C94B1A00C94297B0C9484A40C94397B6D
:100240000C9470A00C94BEA60C949FD50C945CA04A
:100250000C9466A00C943B200C944B7B0C9460ABEC
:100260000C9462A70C94597B0C948BAF0C9442A015
:100270000C9461A60C94DCA40C948CD54E414E4990
:100280004E495459494E46CDCCCC3D0AD7233C1754
:10029000B7D13877CC2B329595E6241FB14F0A00A1
:1002A0000020410000C84200401C4620BCBE4CCA91
:1002B0001B0E5AAEC59D7400407A10F35A00A0720E
:1002C0004E18090010A5D4E80000E8764817000091
:1002D000E40B54020000CA9A3B000000E1F505005F
:1002E0000080969800000040420F000000A08601A8
:1002F000000000102700000000E803000000006478
:1003000000000000000A00000000000100000000E2
:10031000002C76D888DC674F0823DFC1DFAE59E1B7
:10032000B1B796E5E3E453C63AE651997696E8E626
:10033000C28426EB898C9B62ED407C6FFCEFBC9CF9
:100340009F40F2BAA56FA5F490055A2AF75C936B0B
:100350006CF9676DC11BFCE0E40D47FEF520E6B5C6
:1003600000D0ED902E0300943577050080841E08A0
:100370000000204E0A000000C80C333333330F98BE
:100380006E12831141EF8D2114893BE65516CFFE85
:10039000E6DB18D1844B381BF77C1D901DA4BBE411
:1003A00024203284725E228100C9F124ECA1E53D53
:1003B00027220A00656E7175657565696E67202272
:1003C000006F6B00526573656E643A20005A580ADC
:1003D0000058590A00595A0A00576F726B737061BE
:1003E000636520506C616E6520004361703A0025A2
:1003F00069730025696D20256973002569682025CA
:10040000696D2025697300256964202569682025A8
:10041000696D202569730025697920256964202587
:1004200069682025696D2025697300236465666904
:100430006E652044454641554C545F00006265643A
:10044000004B6420004B6920004B70200050494451
:10045000204175746F74756E652066696E69736886
:100460006564212050757420746865206C61737414
:10047000204B702C204B6920616E64204B642063FC
:100480006F6E7374616E74732066726F6D20626537
:100490006C6F7720696E746F20436F6E6669677545
:1004A000726174696F6E2E680A005049442041756C
:1004B000746F74756E65206661696C656421207463
:1004C000696D656F75740A00504944204175746FF9
:1004D00074756E65206661696C6564212054656D74
:1004E000706572617475726520746F6F20686967DA
:1004F000680A00204B643A2000204B693A20002013
:100500004B703A20000A20436C617373696320507A
:100510004944200A00204B643A2000204B693A20CD
:1005200000204B703A20000A204E6F206F766572D3
:1005300073686F6F740A002054753A2000204B7561
:100540003A2000206D61783A2000206D696E3A20D3
:100550000020643A200020626961733A200050490B
:1005600044204175746F74756E6520737461727484
:100570000A00504944204175746F74756E65206699
:1005800061696C6564212054656D70657261747574
:10059000726520746F6F20686967680A005049446B
:1005A000204175746F74756E65206661696C656451
:1005B0002120426164206578747275646572206ED2
:1005C000756D6265720A0000005C4300005C4300C8
:1005D00000524300000000000080C000000000291D
:1005E0000A002062797465733B20637263200053B4
:1005F000657474696E67732053746F726564202824
:1006000000454550524F4D206461746173697A65AD
:10061000206572726F722E0A00290A0020627974B6
:1006200065733B2063726320002073746F7265648E
:100630002073657474696E6773207265747269657E
:10064000766564202800202863616C63756C617492
:10065000656429210A0020213D2000454550524F64
:100660004D20435243206D69736D61746368202D82
:10067000202873746F7265642920002053697A659D
:100680003A2000496E6465783A2000204D61726C12
:10069000696E3D563736290A00454550524F4D2068
:1006A00076657273696F6E206D69736D61746368CE
:1006B0002028454550524F4D3D00454550524F4D25
:1006C00020496E697469616C697A65640A004861E1
:1006D0007264636F6465642044656661756C742040
:1006E00053657474696E6773204C6F616465640A46
:1006F000000000FA430000FA430000C0400000F090
:10070000410000A0420000A0420000C8430080C198
:1007100043D0070000D00700003C00000010270075
:10072000003B200020204D36303320002055004C67
:100730000046696C616D656E74206C6F61642F7525
:100740006E6C6F6164206C656E677468733A00202C
:10075000204D393030204B004C696E65617220416C
:100760006476616E63653A002044002049002020D1
:100770004D33303420500020440020490020204DCB
:100780003330312050005049442073657474696ED1
:1007900067733A0020204D36363600456E64737418
:1007A0006F702061646A7573746D656E743A0020B1
:1007B00020473239205334205A00204A0020204755
:1007C000323920533320490020204D343230205319
:1007D000004D65736820426564204C6576656C69E0
:1007E0006E673A0020204D323036205800486F6D39
:1007F00065206F66667365743A00205800205300C8
:1008000020204D323035204200416476616E6365B0
:10081000643A20423C6D696E5F7365676D656E7406
:100820005F74696D655F75733E20533C6D696E5FE3
:1008300066656564726174653E20543C6D696E5FE7
:1008400074726176656C5F66656564726174653E3D
:1008500020583C6D61785F785F6A65726B3E205905
:100860003C6D61785F795F6A65726B3E205A3C6DC2
:1008700061785F7A5F6A65726B3E20453C6D617896
:100880005F655F6A65726B3E002054002052002055
:10089000204D323034205000416363656C657261D5
:1008A00074696F6E2028756E6974732F7332293ADC
:1008B00020503C7072696E745F616363656C3E20AA
:1008C000523C726574726163745F616363656C3E10
:1008D00020543C74726176656C5F616363656C3E45
:1008E0000020204D3230312058004D6178696D75FF
:1008F0006D20416363656C65726174696F6E202859
:10090000756E6974732F7332293A0020204D32308E
:10091000332058004D6178696D756D20666565649A
:1009200072617465732028756E6974732F73293A28
:100930000053746570732070657220756E69743A27
:100940000020204D3230302044300A0020204D322B
:1009500030302044002044697361626C65640A0091
:1009600046696C616D656E742073657474696E6739
:10097000733A0020286D6D29002020473231202055
:1009800020203B20556E69747320696E206D6D00C8
:100990006F70656E00545249474745524544003ACE
:1009A00020007A325F6D696E007A5F6D696E007942
:1009B0005F6D696E00785F6D696E005265706F7271
:1009C00074696E6720656E6473746F7020737461F0
:1009D0007475730A0020746F6F206C6F6E672065EA
:1009E0007874727573696F6E2070726576656E7457
:1009F00065640A0020636F6C642065787472757397
:100A0000696F6E2070726576656E7465640A0000A9
:100A1000000000000080C0000000005761726E6995
:100A20006E673A20486F6D696E672042756D702061
:100A300044697669736F72203C20310A0002020417
:100A40000000484200004842000080400000A040F2
:100A50000000A0400000004000005C430000604334
:100A600000005243FFFFFF000000010000000100F2
:100A7000008000555555000000400033333300AA74
:100A8000AA2A004992240000002000C7711C009986
:100A9000991900D1451700555515003BB113002495
:100AA00049120011111100000010000F0F0F00E398
:100AB000380E0043790D00CCCC0C00C3300C00E89C
:100AC000A20B0064210B00AAAA0A00703D0A009D37
:100AD000D80900427B090092240900DCD308008871
:100AE0008808001042080000000800F0C1070087D5
:100AF00087070075500700711C07003EEB0600A138
:100B0000BC06006990060066660600703E0600613D
:100B100018060017F4050074D105005BB00500B29B
:100B2000900500627205005555050078390500B83A
:100B30001E0500050505004EEC040087D40400A145
:100B4000BD040090A7040049920400C17D0400EE9A
:100B5000690400C7560400444404005C32040008E1
:100B600021040041100400000004003FF00300F8DD
:100B7000E0030026D20300C3C30300CCB503003A50
:100B8000A803000A9B0300388E0300C08103009F66
:100B9000750300D0690300505E03001D5303003449
:100BA000480300913D030033330300162903003846
:100BB0001F030097150300300C0300030303000B11
:100BC000FA020049F10200BAE802005CE002002DDE
:100BD000D802002DD0020059C80200B0C002003176
:100BE000B90200DAB10200AAAA0200A0A30200BC66
:100BF0009C0200FA9502005C8F0200DF88020082EE
:100C0000820200457C020027760200277002004322
:100C10006A02007C640200D05E02003F590200C8F4
:100C2000530200FFFDFCFAF8F6F4F2F0EEECEAE90C
:100C3000E7E5E3E1E0DEDCDAD9D7D5D4D2D0CFCD19
:100C4000CBCAC8C7C5C3C2C0BFBDBCBAB9B7B6B4AA
:100C5000B3B2B0AFADACAAA9A8A6A5A4A2A1A09E0C
:100C60009D9C9A99989795949392908F8E8D8B8A4C
:100C70008988878684838281807F7E7D7B7A79786C
:100C800077767574737271706F6E6D6C6B6A69686C
:100C900067666564636261605F5E5D5C5B5A59585C
:100CA000585756555453525150504F4E4D4C4B4A35
:100CB0004A4948474646454443424241403F3E3EFA
:100CC0003D3C3B3B3A3938383736353534333232B0
:100CD0003130302F2E2E2D2C2B2B2A292928272757
:100CE00026252524232322212120201F1E1E1D1CF2
:100CF0001C1B1B1A1919181817161615151413137F
:100D000012121111100F0F0E0E0D0D0C0C0B0A0A02
:100D1000090908080707060605050404030302027B
:100D200001000024F4D43050C38E20C2A2401782A8
:100D30008B7011127A910D816CD90AA861E108C7F4
:100D4000586607615143061E4B5D05C145A7041A4D
:100D5000411104093D9803713931034036DB0265C6
:100D6000339102D4305402802E1D02632CEE0175A3
:100D70002AC501B028A001102781018F2564012B0D
:100D8000244B01E0223401AC211F018D200D018094
:100D90001FFC00841EED00971DDF00B81CD200E68A
:100DA0001BC600201BBC00641AB200B219A8000ABE
:100DB00019A0006A189900D117910040178B00B54F
:100DC00016840031167E00B31579003A157300C7FA
:100DD000146F0058146A00EE136600881363002530
:100DE000135E00C7125B006C12570015125400C14D
:100DF00011510070114F0021114B00D61049008D88
:100E00001047004610440002104200C00F4000800E
:100E10000F3E00420F3C00060F3B00CB0E38009304
:100E20000E37005C0E3500270E3400F30D3200C182
:100E30000D3100900D3000600D2E00320D2D00059B
:100E40000D2C00D90C2B00AE0C2900850C29005C60
:100E50000C2700350C27000E0C2600E80B2400C4DC
:100E60000B2400A00B23007D0B23005A0B2100391B
:100E70000B2100180B2000F80A1F00D90A1E00BB26
:100E80000A1E009D0A1D00800A1D00630A1C0047FF
:100E90000A1B002C0A1B00110A1A00F7091A00DDB0
:100EA000091900C4091900AB091900920917007B40
:100EB000091800630917004C0916003609160020AE
:100EC0000916000A091500F5081500E0081400CC01
:100ED000081400B8081400A4081400900813007D3A
:100EE0000812006B0813005808120046081200345C
:100EF000081100230811001208110001081100F068
:100F0000071000E0071000D0071000C0071000B065
:100F1000070F00A107100091070E0083070F007450
:100F2000070F0065070E0057070E0049070E003B2C
:100F3000070D002E070E0020070D0013070D0006F9
:100F4000070D00F9060C00ED060D00E0060C00D4BC
:100F5000060C00C8060C00BC060C00B0060C00A471
:100F6000060B0099060C008D060B0082060B00771D
:100F7000060B006C060B0061060A0057060B004CBE
:100F8000060A0042060A0038060A002E060A002455
:100F9000060A001A060A001006090007060A00FDE4
:100FA000050900F4050900EB050900E2050900D96F
:100FB000050900D0050900C7050900BE050900B5EF
:100FC000050800AD050800A50509009C050800946A
:100FD0000508008C050800840508007C05080074DD
:100FE0000508006C050700650508005D050700564B
:100FF0000508004E050700470507004005080038B2
:10100000050700310507002A050700230507001C16
:10101000050600160507000F050700080506000273
:10102000050700FB040600F5040700EE040600E8CF
:10103000040600E2040700DB040600D5040600CF26
:10104000040600C9040600C3040600BD040600B778
:10105000040600B1040500AC040600A6040600A0C6
:101060000405009B04060095040500900406008A10
:1010700004050085040500800406007A0405007557
:10108000040500700405006B04050066040500619A
:101090000405005C04050057040500520405004DDA
:1010A00004050048040500430405003E0404003A1A
:1010B00004050035040500300404002C0405002755
:1010C000040400230405001E0404001A040400168E
:1010D000040500110404000D0404000904050004C3
:1010E00004040000040400FC030400F8030400F4FA
:1010F000030400F0030400EC030400E8030400E42C
:10110000030400E0030400DC030400D8030400D45B
:10111000030400D0030400CC030400C8030300C58B
:1011200003030024F404D9201BC40C5C0E9804C4EF
:10113000095F0265077101F405F900FB04B300487B
:10114000048700C10369005803550003034500BE2E
:10115000023A008402310053022A002902250004C9
:10116000022000E4011C00C8011900AF011700981B
:10117000011400840113007101100061011000517D
:10118000010E0043010D0036010B002B010B002066
:10119000010B00150109000C01090003010800FB07
:1011A000000800F3000800EB000700E4000600DE82
:1011B000000600D8000600D2000600CC000500C7DB
:1011C000000500C2000500BD000400B9000400B520
:1011D000000400B1000400AD000400A9000400A553
:1011E000000300A20003009F0004009B000300987E
:1011F0000003009500020093000300900003008D9F
:101200000002008B000300880002008600020084B8
:10121000000300810002007F0002007D0002007BCD
:1012200000020079000200770001007600020074DD
:1012300000020072000100710002006F0002006DE8
:101240000001006C0002006A0001006900020067F2
:1012500000010066000100650001006400020062F8
:1012600000010061000100600001005F0002005DFC
:101270000001005C0001005B0001005A0001005900
:101280000001005800010057000100560001005500
:1012900000010054000100530000005300010052FF
:1012A00000010051000100500001004F0001004EFC
:1012B0000000004E0001004D0001004C0001004BF9
:1012C0000000004B0001004A0001004900010048F5
:1012D00000000048000100470001004600000046F1
:1012E00000010045000000450001004400010043EA
:1012F00000000043000100420000004200010041E4
:1013000000000041000100400001003F0000003FDC
:101310000001003E0000003E0001003D0000003DD5
:101320000001003C0000003C0000003C0001003BCC
:101330000000003B0001003A0000003A00010039C3
:1013400000000039000100380000003800000038BB
:1013500000010037000000370001003600000036B1
:1013600000000036000100350000003500000035A7
:10137000000100340000003400000034000100339C
:101380000000003300000033000100320000003292
:101390000000003200010031000000310000003187
:1013A0000001003000000030000000300001002F7C
:1013B0000000002F0000002F0000002F0001002E71
:1013C0000000002E0000002E0001002D0000002D66
:1013D0000000002D0000002D0001002C0000002C5A
:1013E0000000002C0000002C0001002B0000002B4E
:1013F0000000002B0000002B0001002A0000002A42
:101400000000002A0000002A000100290000002935
:101410000000002900000029000000290001002828
:10142000000000280000002800000028000000281C
:10143000000100270000002700000027000000270F
:101440000000002700010026000000260000002602
:1014500000000026000000260001002500000025F5
:1014600000000025000000250000002500000025E8
:1014700000010024000000240000002400000024DB
:1014800000000024000100230000002300000023CE
:1014900000000023000000230000002300000023C0
:1014A00000010022000000220000002200000022B3
:1014B00000000022000000220001002100000021A5
:1014C0000000002100000021000000210000002198
:1014D000000000210001002000000020000000208A
:1014E000000000200000002000000020000000207C
:1014F000000000200001001F0000001F0000001F6E
:101500000000001F0000001F0000001F0000001F5F
:101510000001001E0000001E0000001E0000001E52
:10152000000000232C0000B8220000561800003AEA
:101530000F0000B8080000B1040000710200003E76
:1015400001000020436F756E7420583A00006265F8
:1015500064002C2073797374656D2073746F7070E0
:10156000656421204865617465725F49443A2000D2
:1015700048656174696E67204661696C65640048FE
:10158000656174696E67206661696C6564007001ED
:101590002C0190012701B0012201C0011D01F001C1
:1015A00018011002130130020E01600209019002BD
:1015B0000401C002FF000003FA004003F5008003AD
:1015C000F000D003EB002004E6007004E100E0042A
:1015D000DC004005D700C005D2004006CD00D00693
:1015E000C8008007C3003008BE00F008B900C00979
:1015F000B400B00AAF00B00BAA00D00CA500000EDA
:10160000A000500F9B00C0109600501291000014D3
:101610008C00C0158700B0178200B0197D00D01B68
:101620007800001E730040206E0090226900F024B4
:10163000640040275F0090295A00E02B5500102ECF
:10164000500020304B0010324600E033410090350E
:101650003C001037370070383200A0392D00B03A06
:101660002800A03B2300603C1E00103D1900903D67
:101670001400103E0F00703E0A00C03E0500003FFF
:101680000000403FFBFF803FF6FFC03FF1FF5448A2
:1016900045524D414C2052554E41574159005468D6
:1016A00065726D616C2052756E617761790045726B
:1016B000723A204D415854454D50004D41585445C3
:1016C0004D50207472696767657265640045727277
:1016D0003A204D494E54454D50004D494E54454DCC
:1016E0005020747269676765726564004D383420F4
:1016F000582059205A204500202F002042403A000F
:1017000020403A0020573A0020573A00496E76614F
:101710006C69642065787472756465720A007C3C3B
:101720003E5E2B3D3F2F5B5D3B2C2A225C004361DC
:101730006E6E6F74206F70656E207375626469726F
:10174000200053442063617264206F6B0A006F7045
:10175000656E526F6F74206661696C65640A00760D
:101760006F6C756D652E696E6974206661696C6554
:10177000640A00534420696E6974206661696C0ACA
:101780000046696C652073656C65637465640A0066
:101790002053697A653A200046696C65206F706550
:1017A0006E65643A2000454E4420535542524F55D1
:1017B00054494E450A002220706F73002220706148
:1017C00072656E743A2200535542524F5554494E39
:1017D000452043414C4C207461726765743A220085
:1017E000747279696E6720746F2063616C6C20730A
:1017F00075622D67636F64652066696C6573207719
:1018000069746820746F6F206D616E79206C6576E5
:10181000656C732E204D4158206C6576656C20698F
:10182000733A310A0057726974696E6720746F20C9
:1018300066696C653A20002E0A006F70656E20663E
:1018400061696C65642C2046696C653A2000100063
:10185000C90210012C014001220170011801B001E0
:101860000E01F00104015002FA00B002F000300352
:10187000E600D003DC009004D2007005C800A0068A
:10188000BE000008B400B009AA00D00BA000600E92
:10189000960060118C000015820020197800C01D90
:1018A0006E00A0226400B0275A00902C5000003136
:1018B0004600E0343C0010383200903A2800603C8A
:1018C0001E00A03D1400803E0A00203F000066720A
:1018D00065736800646F696E67002066696C653ABD
:1018E00020004E6F77200000002100240027002AEE
:1018F000002D003000330001010000040107010A3F
:101900000100002200250028002B002E00310034A9
:101910000002010000050108010B01000020002366
:1019200000260029002C002F0032000001000003D7
:101930000106010901050505050705080808080253
:101940000202020A0A080804040404010101010158
:101950000101010303030303030303040707070C47
:101960000C0C0C0C0C0C0C020202020606060606FD
:101970000606060B0B0B0B0B0B0B0B0102102020AA
:1019800008081020401020408002010201080402D3
:101990000101020408102040808040201008040249
:1019A00001800402018040201008040201080402A2
:1019B00001010204081020408001020408102040A8
:1019C0008000000A0B02090C0D0E08070304010039
:1019D0000000000000000000000000000000000007
:1019E00000000000000000000000000000121110C4
:1019F00000000000000000000000000000000000E7
:101A000000000000000000024A3135004A31320077
:101A10004A3137002020506C616E6E6572427566E7
:101A200066657242797465733A2000204672656576
:101A3000204D656D6F72793A2000436F6D70696C4F
:101A400065643A2053657020313220323032310AD9
:101A500000204C61737420557064617465643A2091
:101A6000323032312D30392D3034207C20417574A4
:101A7000686F723A202856616C656E74696E6520D5
:101A80005368696C6F76290A004D61726C696E2D1E
:101A90004149334D00322E302E780A004D61726C70
:101AA000696E0020536F66747761726520526573AA
:101AB00065740A00205761746368646F672052651B
:101AC0007365740A002042726F776E206F75742000
:101AD00052657365740A002045787465726E616C96
:101AE0002052657365740A00506F77657255700AED
:101AF0000073746172740A004D3234004D32332029
:101B00002573006175746F25632E6700473238585E
:101B100059004D31303031006572726F722077722A
:101B20006974696E6720746F2066696C650A004489
:101B30006F6E6520736176696E672066696C652ECD
:101B40000A004D323900205A3A0020593A002058F4
:101B50003A00656E6473746F7073206869743A201C
:101B600000220A00556E6B6E6F776E20636F6D6D8D
:101B7000616E643A202200204500205A002059005E
:101B8000204D393220580043616E6E6F7420656EAF
:101B9000746572207375626469723A20004D363044
:101BA00030004739300A4731205A31300A47312056
:101BB000583135205931352046343030300053709B
:101BC000656369616C204D656E753A20457869746E
:101BD0002045617379204C6576656C204D656E7586
:101BE0000A003C455A4C4558543E004739300A4794
:101BF00031205A350A47312058313520593230309A
:101C00002046343030300A4731205A300053706556
:101C10006369616C204D656E753A2045617379206A
:101C20004C6576656C20504F494E5420340A003C78
:101C3000457869742045617379204C6576656C3E02
:101C4000003C455A4C50443E004739300A47312049
:101C50005A350A4731205832303520593230302039
:101C600046343030300A4731205A300053706563B3
:101C700069616C204D656E753A2045617379204C21
:101C80006576656C20504F494E5420330A003C5015
:101C90006F696E7420443E003C455A4C50433E00F0
:101CA0004739300A4731205A350A473120583230F7
:101CB00035205931352046343030300A4731205AEA
:101CC00030005370656369616C204D656E753A2014
:101CD00045617379204C6576656C20504F494E54B0
:101CE00020320A003C506F696E7420433E003C4530
:101CF0005A4C50423E004739300A4731205A350A83
:101D00004731205831352059313520463430303074
:101D10000A4731205A30005370656369616C204D69
:101D2000656E753A2045617379204C6576656C2047
:101D3000504F494E5420310A003C506F696E742058
:101D4000423E003C455A4C50413E004732380A471B
:101D500039300A4731205A350A4731205831352069
:101D60005931352046343030300A4731205A30005E
:101D70005370656369616C204D656E753A20456EE0
:101D80007465722045617379204C6576656C204DD1
:101D9000656E750A003C506F696E7420413E003CD0
:101DA000455A4C564C4D3E005370656369616C203A
:101DB0004D656E753A204578697420466C6F7720C2
:101DC0004D656E750A003C45617379203420506F73
:101DD000696E74204C6576656C3E003C45585446EF
:101DE0004C573E004D323231205325690053706507
:101DF0006369616C204D656E753A20466C6F772083
:101E0000446F776E0A003C4578697420466C6F77A2
:101E10002053657474696E67733E003C464C444EB3
:101E20003E004D323231205325690053706563699D
:101E3000616C204D656E753A20466C6F7720555069
:101E40000A003C446F776E3E003C464C55503E00C5
:101E50005370656369616C204D656E753A20456EFF
:101E600074657220466C6F77204D656E750A003C74
:101E700055703E003C534554464C4F3E003C536524
:101E80007420466C6F77726174653E003C4241433A
:101E90004B3E003C456E64204D657368204C657672
:101EA000656C696E673E003C534D455849543E0091
:101EB0005370656369616C204D656E753A20456E9F
:101EC00061626C652046696C616D656E7420536556
:101ED0006E736F720A003C457869743E003C454E53
:101EE00053454E3E005370656369616C204D656ECD
:101EF000753A2044697361626C652046696C616D56
:101F0000656E742053656E736F720A003C456E6196
:101F1000626C652046696C2E2053656E736F723E4D
:101F2000003C44495353454E3E005370656369611C
:101F30006C204D656E753A2046696C2E20436861B1
:101F40006E676520526573756D650A003C44697360
:101F500061626C652046696C2E2053656E736F72EA
:101F60003E003C524553554D3E00537065636961D8
:101F70006C204D656E753A2046696C2E2043686171
:101F80006E67652050617573650A003C46696C2E6A
:101F9000204368616E676520526573756D653E000C
:101FA0003C46696C2E204368616E67652050617500
:101FB00073653E004739310A4731205A2B302E30A5
:101FC000320A473420503235300A4731205A2D30FA
:101FD0002E30330A473930005370656369616C20D5
:101FE0004D656E753A205A20446F776E20302E3042
:101FF000310A003C46696C2E204368616E6765209B
:1020000050617573653E003C5A444E3030313E009D
:102010004739310A4731205A2B302E30330A4734A2
:1020200020503235300A4731205A2D302E30320AB6
:10203000473930005370656369616C204D656E757A
:102040003A205A20557020302E30310A003C5A2058
:10205000446F776E20302E30313E003C5A55503060
:1020600030313E004739310A4731205A2D302E3069
:10207000320A473930005370656369616C204D65E1
:102080006E753A205A20446F776E20302E30320A17
:10209000003C5A20557020302E30313E003C5A44CE
:1020A0004E3030323E004739310A4731205A2B300A
:1020B0002E30320A473930005370656369616C20F5
:1020C0004D656E753A205A20557020302E30320AF8
:1020D000003C5A20446F776E20302E30323E003C58
:1020E0005A55503030323E004739310A4731205A74
:1020F0002D302E310A473930005370656369616CA9
:10210000204D656E753A205A20446F776E20302E30
:10211000310A003C5A20557020302E30323E003CAF
:102120005A444E30313E004739310A4731205A2B4C
:10213000302E310A473930005370656369616C2075
:102140004D656E753A205A20557020302E310A00A8
:102150003C5A20446F776E20302E313E003C5A5559
:102160005030313E0047323920533200537065639E
:1021700069616C204D656E753A204E657874204D0E
:1021800065736820506F696E740A003C5A20557060
:1021900020302E313E003C4E4558544D3E004732D3
:1021A00039205331005370656369616C204D656E51
:1021B000753A205374617274204D657368204C65C4
:1021C00076656C696E670A003C4E657874204D65D3
:1021D000736820506F696E743E003C534D45534800
:1021E0003E003C5374617274204D657368204C65E9
:1021F00076656C696E673E003C4D4553484C3E0029
:102200004D31343020533830005370656369616C50
:10221000204D656E753A2050726568656174205571
:102220006C747261626173650A003C4D657368206D
:102230004C6576656C696E673E003C50524548457A
:102240003E005370656369616C204D656E753A2080
:102250004C6F61642046572044656661756C7473E9
:102260000A003C5072656865617420556C74726137
:10227000626173653E003C4C444445463E005370E9
:10228000656369616C204D656E753A2053617665B2
:1022900020454550524F4D0A003C4C6F616420462A
:1022A000572044656661756C74733E003C5341561B
:1022B00045453E004D33303320452D3120533630D7
:1022C0002043362055310A4D3530300A4D333030F9
:1022D000205334343020503230300A4D33303020E7
:1022E0005336363020503235300A4D33303020539B
:1022F0003838302050333030005370656369616C7A
:10230000204D656E753A205049442054756E652005
:10231000556C747261626173650A003C5361766545
:1023200020454550524F4D3E003C50494455423E99
:10233000004732380A4739300A4731205A32300ACA
:102340004731205831313020593131302046343036
:1023500030300A4731205A350A4D3130362053315A
:1023600037320A473420503530300A4D333033206D
:1023700045302053323135204331352055310A471D
:102380003420503530300A4D3130370A4732380A60
:102390004731205A31300A4D38340A4D3530300A31
:1023A0004D333030205334343020503230300A4DE9
:1023B000333030205336363020503235300A4D33EA
:1023C000303020533838302050333030005370656F
:1023D0006369616C204D656E753A20504944205404
:1023E000756E6520486F74656E640A003C50494400
:1023F0002054756E6520556C747261626173653E20
:10240000003C50494448453E003C504944205475E6
:102410006E6520486F74656E643E003C53504543C2
:102420004D3E003C5370656369616C204D656E756F
:102430003E004D313038004D313038004D323400DF
:102440004D323400312E332E302D626574612E32C0
:10245000004B572D004A333320002F2E2E002E2EF6
:10246000004A3132004731205A3130004F4B00478B
:1024700031205A3130004739300047312045256935
:102480004635303000473120452D302E3146256904
:102490000047312045302E31462569004731205A0A
:1024A0002569462569004731205A2D302E314625B1
:1024B00069004731205A302E3146256900473120C6
:1024C00059256946256900473120592D302E31465E
:1024D00025690047312059302E31462569004731A2
:1024E0002058256946256900473120582D302E3166
:1024F0004625690047312058302E3146256900476E
:1025000039310047323800473238205A00473238D4
:1025100020590047323820580041323056200047B9
:1025200031205A3130004A3034004A3231004A32C8
:1025300030004A3136004A3034004A303500454ECA
:102540004400464E20003939393A393939004D00B6
:1025500048004137562000413656202D2D2D004A87
:1025600030320041365620005A3A2000593A2000B5
:10257000583A200041355600413456200041335628
:102580002000413256200041315620004130562073
:10259000004D3237004D3834004739310A47312079
:1025A000452D312046313830300A473930004A3124
:1025B00036004D313235204C32004A3138004A3134
:1025C00034004A3030004A3031004A313000207443
:1025D0006F6F206C6F6E6720657874727573696FAA
:1025E0006E2070726576656E7465640A0020636F94
:1025F0006C6420657874727573696F6E2070726593
:1026000076656E7465640A00486F6D6520257325D4
:10261000732573204669727374003C537065636957
:10262000616C204D656E753E003C535045434D3EF8
:10263000003A20003A202F002F2E2E0A002F2E2E97
:10264000002E2E003C5370656369616C204D656EF1
:10265000753E0A003C5370656369616C204D656E80
:10266000753E003C535045434D3E003C45786974EF
:102670003E003C534D455849543E003C456E616216
:102680006C652046696C2E2053656E736F723E0038
:102690003C454E53454E3E003C44697361626C6557
:1026A0002046696C2E2053656E736F723E003C4469
:1026B000495353454E3E003C536176652045455095
:1026C000524F4D3E003C53415645453E003C4C6FF9
:1026D00061642046572044656661756C74733E00E2
:1026E0003C4C444445463E003C5049442054756EA1
:1026F0006520556C747261626173653E003C50499F
:102700004455423E003C5049442054756E65204873
:102710006F74656E643E003C50494448453E003C41
:102720004D657368204C6576656C696E673E003C4C
:102730004D4553484C3E003C456173792034205050
:102740006F696E74204C6576656C3E003C455A4C52
:10275000564C4D3E003C46696C2E204368616E67C6
:102760006520526573756D653E003C524553554D6D
:102770003E003C46696C2E204368616E67652050C0
:10278000617573653E003C50415553453E003C50D9
:1027900072656865617420556C74726162617365FD
:1027A0003E003C50524548453E003C53657420462F
:1027B0006C6F77726174653E003C534554464C4FD4
:1027C0003E003C457869742045617379204C6576FC
:1027D000656C3E003C455A4C4558543E003C506F99
:1027E000696E7420443E003C455A4C50443E003CC7
:1027F000506F696E7420433E003C455A4C50433E36
:10280000003C506F696E7420423E003C455A4C506B
:10281000423E003C506F696E7420413E003C455A78
:102820004C50413E003C5341564520616E6420456A
:102830005849543E003C45585441424C4D3E003CA2
:102840005374617274204175746F204C6576656CA9
:10285000696E673E003C424C5443483E003C446F26
:10286000776E3E003C444E4F46465A303E003C5543
:10287000703E003C55504F46465A303E003C4F4655
:102880005A4453503E003C4578697420466C6F773B
:102890002053657474696E67733E003C4558544616
:1028A0004C573E003C446F776E3E003C464C444ED5
:1028B0003E003C55703E003C464C55503E003C4668
:1028C0004C444953503E003C456E64204D6573684E
:1028D000204C6576656C696E673E003C4241434B17
:1028E0003E003C5361766520454550524F4D3E00B9
:1028F0003C53415645453E003C4E657874204D653D
:10290000736820506F696E743E003C4E4558544DBC
:102910003E003C5A20446F776E20302E30313E000E
:102920003C5A444E3030313E003C5A2055702030E5
:102930002E30313E003C5A55503030313E003C5A2A
:1029400020446F776E20302E30323E003C5A444E89
:102950003030323E003C5A20557020302E30323E0E
:10296000003C5A55503030323E003C5A20446F777C
:102970006E20302E313E003C5A444E30313E003CF9
:102980005A20557020302E313E003C5A555030317F
:102990003E003C5374617274204D657368204C6531
:1029A00076656C696E673E003C534D4553483E006A
:1029B00020453A00205A3A0020593A00583A004A35
:1029C0003233004D323500473930002E0A006F7027
:1029D000656E206661696C65642C2046696C653A99
:1029E00020004A3131005072696E7465722068614E
:1029F0006C7465642E206B696C6C28292063616C93
:102A00006C6564210A00434F4D4D554E4943415476
:102A1000494F4E0044525952554E004552524F5262
:102A20005300494E464F004543484F004572726F70
:102A3000722077726974696E6720746F2045455003
:102A4000524F4D210A00363726032B3C3D382A2EA3
:102A5000303E1224221E1A1C1808440A2C4308096E
:102A6000072C070001627573793A207061757365F0
:102A70006420666F7220696E7075740A00627573E7
:102A8000793A2070617573656420666F7220757382
:102A900065720A00627573793A2070726F636573AC
:102AA00073696E670A004A313500204553500A00A9
:102AB000204E53500A005056303120005B4D505D7F
:102AC00020005072696E7465722073746F70706547
:102AD000642064756520746F206572726F72732E46
:102AE0002046697820746865206572726F72206173
:102AF0006E6420757365204D39393920746F2072EA
:102B00006573746172742E202854656D70657261EE
:102B1000747572652069732072657365742E205315
:102B200065742069742061667465722072657374BF
:102B3000617274696E67290A004E6F20436865638D
:102B40006B73756D2077697468206C696E65206E93
:102B5000756D6265722C204C617374204C696E65D2
:102B60003A20004E6F20436865636B73756D207764
:102B7000697468206C696E65206E756D6265722C73
:102B8000204C617374204C696E653A20006368655F
:102B9000636B73756D206D69736D617463682C2050
:102BA0004C617374204C696E653A20004C696E6507
:102BB000204E756D626572206973206E6F74204CB3
:102BC000617374204C696E65204E756D6265722B61
:102BD000312C204C617374204C696E653A20004D95
:102BE0003131300053442072656164206572726F28
:102BF000720A002121204B494C4C2063617573659A
:102C00006420627920746F6F206D75636820696E2F
:102C10006163746976652074696D65202D20637524
:102C20007272656E7420636F6D6D616E643A200020
:102C30006563686F3A004572726F723A0053656E51
:102C400064204D31303820746F20726573756D6566
:102C50000A00496E736572742066696C616D656EF9
:102C60007420616E642073656E64204D3130380AC3
:102C70000053656E64204D31303820746F206865D4
:102C80006174206E6F7A7A6C650A00486F74656EA5
:102C90006420746F6F20636F6C640A00496E736503
:102CA00072742066696C616D656E7420616E64205B
:102CB00073656E64204D3130380A000A4D656173CA
:102CC0007572656420706F696E74733A0A003578A6
:102CD00035206D6573682E205A206F6666736574A3
:102CE0003A200057616974696E6720666F722068C8
:102CF00065617475702E0A003F537065636966697B
:102D0000656420582C5920636F6F7264696E61741A
:102D100065206F7574206F6620626F756E64732E08
:102D20000A003F28522965706561742076616C75D0
:102D300065206E6F7420706C61757369626C653BA1
:102D4000206D757374206265206174206C656173F9
:102D50007420312E0A003F28522965706561742065
:102D60006D7573742062652073706563696669654B
:102D700064207768656E206E6F74207573696E6766
:102D800020616E204C43442E0A003F5370656369F6
:102D900066696564206E6F7A7A6C652074656D7003
:102DA00065726174757265206E6F7420706C6175E8
:102DB0007369626C652E0A003F53706563696669CA
:102DC00065642066696C616D656E742073697A65EF
:102DD000206E6F7420706C61757369626C652E0A69
:102DE000003F537065636966696564207072696D40
:102DF00065206C656E677468206E6F7420706C61FE
:102E0000757369626C652E0A003F5072696D6520AA
:102E10006C656E677468206D7573742062652073CD
:102E20007065636966696564207768656E206E6F9A
:102E300074207573696E6720616E204C43442E0ABE
:102E4000003F537065636966696564206E6F7A7AC6
:102E50006C652073697A65206E6F7420706C617583
:102E60007369626C652E0A003F496E76616C696415
:102E70002052657472616374696F6E2F556E72654E
:102E80007472616374696F6E20726174696F2E2051
:102E90004D7573742062652077697468696E20359A
:102EA0006D6D2E0A0020556E7265747261637469CF
:102EB0006F6E20616D6F756E74206175746F6D61DA
:102EC000746963616C6C792073657420746F200081
:102ED0003F556E72657472616374696F6E206C65C4
:102EE0006E677468206D75737420626520737065F9
:102EF0006369666965642E0A003F5370656369669D
:102F000069656420556E72657472616374696F6E71
:102F1000206C656E677468206E6F7420706C6175CC
:102F20007369626C652E0A003F5265747261637446
:102F3000696F6E206C656E677468206D75737420A0
:102F40006265207370656369666965642E0A003F77
:102F50005370656369666965642052657472616364
:102F600074696F6E206C656E677468206E6F742074
:102F7000706C61757369626C652E0A003F537065F1
:102F8000636966696564206C61796572206865694A
:102F9000676874206E6F7420706C61757369626C01
:102FA000652E0A0043292E0A003F53706563696647
:102FB000696564206265642074656D706572617412
:102FC000757265206E6F7420706C61757369626CC8
:102FD00065202834302D00473236207374617274B6
:102FE000696E672E2E2E0A004F46460A004661641F
:102FF00065204865696768742000426564204C65F7
:1030000076656C696E6720004661696C6564207442
:103010006F20656E61626C6520426564204C657648
:10302000656C696E670A004D6573682042656420AF
:103030004C6576656C20646174613A0A00496E766D
:10304000616C6964206D6573682E0A00206E6F7470
:1030500020656E74657265642E0A00473238002060
:103060006F6620004D424C2047323920706F696EE8
:10307000742000290A004A206F7574206F66207240
:10308000616E67652028302D00290A0049206F7580
:1030900074206F662072616E67652028302D004DA8
:1030A0006573682070726F62696E6720646F6E6509
:1030B0002E0A005374617274206D657368207072FB
:1030C0006F62696E67207769746820224732392001
:1030D0005331222066697273742E0A004732380A0F
:1030E00047323920533200686173206E6F2064616B
:1030F00074612E0A004D65736820426564204C653A
:1031000076656C696E67200053206F7574206F665A
:103110002072616E67652028302D35292E0A0048FF
:103120006F74656E6420746F6F20636F6C640A0047
:1031300020496E76616C6964206578747275646587
:1031400072200047322F4733206261642070617221
:10315000616D65746572730A0047322F47332062D0
:10316000616420706172616D65746572730A004DEF
:1031700065736820706F696E742063616E6E6F7422
:10318000206265207265736F6C7665640A00456E17
:10319000642066696C65206C6973740A0042656717
:1031A000696E2066696C65206C6973740A00286E0C
:1031B0006F2066696C65290043757272656E7420B4
:1031C00066696C653A20005344207072696E7469B8
:1031D0006E67206279746520004E6F74205344201E
:1031E0007072696E74696E670A002E0A0044656C1D
:1031F0006574696F6E206661696C65642C20466930
:103200006C653A200046696C652064656C65746580
:10321000643A005072696E742074696D653A2000DA
:10322000496E76616C69642050696E204D6F6465EB
:103230000A000A53746174733A2046696C616D65C3
:103240006E7420757365643A20002C204C6F6E6795
:10325000657374206A6F623A2000546F74616C2049
:1032600074696D653A200053746174733A20002CC0
:10327000204661696C65643A20002C2046696E69BD
:10328000736865643A20005072696E74733A200066
:1032900053746174733A20004A3036004A30340067
:1032A0004A3039006F6B006F666600272A222A1B9E
:1032B0002A142A062A44454255473A004D313133F3
:1032C0002053004D4541545041434B004348414D2C
:1032D0004245525F54454D50455241545552450068
:1032E0004D4F54494F4E5F4D4F4445530054484550
:1032F000524D414C5F50524F54454354494F4E003C
:103300004155544F5245504F52545F53445F5354AC
:10331000415455530050524F4D50545F53555050E7
:103320004F525400454D455247454E43595F504119
:103330005253455200434153455F4C494748545FFF
:103340004252494748544E45535300544F47474C07
:10335000455F4C494748545300534F4654574152D8
:10336000455F504F574552004255494C445F5045C8
:103370005243454E54004C4556454C494E475F44D8
:10338000415441005A5F50524F4245004155544FFD
:103390004C4556454C005052494E545F4A4F4200EE
:1033A00050524F4752455353004155544F52455088
:1033B0004F52545F54454D5000564F4C554D455457
:1033C00052494300454550524F4D0042494E4152EB
:1033D000595F46494C455F5452414E534645520051
:1033E00053455249414C5F584F4E5F584F46460037
:1033F0004649524D574152455F4E414D453A4D6108
:10340000726C696E20322E302E7820286B6E7574A7
:1034100077757273742C2047697468756229204B24
:103420004E555457555253545F4149334D5F56459D
:103430005253494F4E3A312E332E302D626574610E
:103440002E3220444953545249425554494F4E5FFD
:10345000444154453A323032312D30392D30342008
:10346000534F555243455F434F44455F55524C3A85
:1034700068747470733A2F2F6769746875622E636D
:103480006F6D2F6B6E757477757273742F4D6172DB
:103490006C696E2D322D302D782D416E79637562F9
:1034A00069632D69332D4D4547412D532050524FAF
:1034B000544F434F4C5F56455253494F4E3A312E6D
:1034C00030204D414348494E455F545950453A4B91
:1034D0006E75747775727374277320416E79637596
:1034E000626963205072696E746572204558545247
:1034F000554445525F434F554E543A312055554936
:10350000443A62363135333135322D383666622DE4
:10351000346364382D626461372D3931633661302C
:103520003463343637640A002F2F200020520041C4
:103530006363656C65726174696F6E3A2050005701
:1035400041524E494E4721204C6F77205A204A6500
:10355000726B206D6179206C65616420746F2075D9
:103560006E77616E746564207061757365732E0A81
:10357000004F4646004F4E0020204D61783A200013
:10358000200020204D696E3A2000536F667420653C
:103590006E6473746F70733A200046523A0020468E
:1035A0006C6F773A200050726F74656374656420A5
:1035B00050696E0A004D424C2041646A7573742054
:1035C0005A0020643A0020693A0020703A00496E9F
:1035D00076616C69642065787472756465720A003E
:1035E00020643A0020693A0020703A006469730050
:1035F000656E0043290A0061626C656420286D696C
:103600006E2074656D702000436F6C642065787463
:1036100072756465732061726520004D6573682062
:10362000706F696E742063616E6E6F7420626520C6
:103630007265736F6C7665640A004D3432312069AF
:103640006E636F727265637420706172616D657410
:1036500065722075736167650A00546F6F2066613B
:10366000722066726F6D207265666572656E636545
:1036700020706F696E740A00454550524F4D204FBF
:103680004B0A00205A323A004475616C20456E6442
:1036900073746F702041646A7573746D656E742005
:1036A000286D6D293A20002E0A002028302D313057
:1036B00029002076616C7565206F7574206F662017
:1036C00072616E676500416476616E6365204B3D93
:1036D00000446F6E65207072696E74696E67206653
:1036E000696C650A004D3737004D33310000F3EA4D
:1036F000D1EA11241FBECFEFD1E2DEBFCDBF00E083
:103700000CBF13E0A0E0B2E0EEEBFCE002E00BBF88
:1037100002C007900D92AC36B107D9F72AE1ACE6AA
:10372000B3E001C01D92AD39B207E1F71BE1C8E774
:10373000DBE100E006C021970109802FFE010F9414
:10374000A404C737D10780E00807A9F70E94CEEC90
:103750000D944D060C940000CF93DF93CDE4D5E19A
:1037600020E030E048E452E46091121470911314A8
:1037700080911414909115140F94BC0387FF17C007
:1037800080E0FE01C49120910B0190E0B0E0A0E048
:1037900004C0B695A79597958795CA95D2F780FDF1
:1037A0000EC0207220930901DF91CF910895FE0190
:1037B000949181E001C0880F9A95EAF7E2CF2095B5
:1037C000F0CFEF92FF920F931F93E0921F04F092BD
:1037D0002004009321041093220460932304709327
:1037E0002404809325049FEFFF27621B730B840B37
:1037F00030F4809570956195790B890B992790939A
:103800007F19A6E06A9F00927319512DEE277A9FC7
:10381000500DE11D8A9FE00D50937419E0937519C6
:10382000AFE06A9F00927719512DEE277A9F500DD5
:10383000E11D8A9FE00D50937819E0937919AAE071
:103840006A9F00927B19512DEE277A9F500DE11D42
:103850008A9FE00D50937C19E0937D191F910F9181
:10386000FF90EF9008959F92AF92BF92CF92DF9218
:10387000EF92FF920F931F93CF93DF9300D01F928D
:103880001F92CDB7DEB7E3E2FCE00027BB27462F4F
:10389000572FA82FAA2341F4A52F542FB85FAA238E
:1038A00019F4A52F5527B85FA03138F45295A29589
:1038B000452F4F70507FA42BBC5FA03428F4550FC8
:1038C000AA1F550FAA1FBE5FA03818F4550FAA1FD4
:1038D000B395550FAA1FEA0FF01F449151E0AA2794
:1038E000B85081F1C8F0B0FF02C0440F551FB1FFBE
:1038F00004C0440F551F440F551FB2FF06C0529518
:103900004295142F1F70407F512BB3FF1BC0A52F72
:10391000542F44270C94A21CB195B0FF02C05595BA
:103920004795B1FF04C05595479555954795B2FF0A
:1039300005C05295407F4295452B5F70B3FF02C092
:10394000452F5527DD24CC24BB24B2E0649FD0183A
:10395000C108B00AB00B749FC018B108B00B849FA7
:10396000B018B109659FC018B108B00B759FB018A9
:10397000B109859FB0196A9FB018B1097A9FB01933
:103980004D9DA12C99243327992722275D9DA00CBA
:10399000911C301F901F201FAD9D900C311D901F5A
:1039A000201F4C9DA00C911C301F901F201F5C9D60
:1039B000900C311D901F201FAC9D300D911D201FBC
:1039C0004B9D900C311D901F201F5B9D300D911D54
:1039D000201FAB9D900D211D4B9F300D911D201F71
:1039E0005B9F900D211DAB9F200DB1E0BB24CC242B
:1039F000DD24639FD018C108B00AB00B739FC018B4
:103A0000B108B00B839FB018B109699FC018B10805
:103A1000B00B799FB018B109899FB019629FB01897
:103A2000B109729FB019D61AC70AB80A20F0B1E0DE
:103A30003B0F901F201F1124792F632F90E0822FBE
:103A40000F900F900F900F900F90DF91CF911F91DB
:103A50000F91FF90EF90DF90CF90BF90AF909F902D
:103A6000089580914B1490914C14891B8F7019F418
:103A700090E080E0089590914814992351F08330AC
:103A800030F48FEF890F19F080934814F1CF109222
:103A9000481480914C1422E6829FC00111248F5A51
:103AA000954FFC01208120FDE3CF20914C142F5F26
:103AB0002F702093491430914C1420914A143213E2
:103AC00004C02091491420934A1408952F923F92E4
:103AD0004F925F926F927F928F929F92AF92BF921E
:103AE000CF92DF92EF92FF920F931F93CF93DF93CA
:103AF000CDB7DEB764970FB6F894DEBF0FBECDBF6B
:103B00007A8B698BDC018D909D90AD90BC90139762
:103B100014962D913D914D915C9117972D833E8385
:103B20004F83588720E030E040E251E4C501B40102
:103B30000F945B012AE037ED43EA5CE30E940AFB45
:103B40000F94C80264300CF427C163E0E62E660FC0
:103B5000FF08F701EE0FFF1FEE0FFF1FE15BFA4EAC
:103B600040805180628073801701BFEF2B1A3B0A9F
:103B700020E030E040E251E46D817E818F819885C4
:103B80000F945B012AE037ED43EA5CE30E940AFBF5
:103B90000F94C80264300CF403C163E0062F660F73
:103BA000110BF801EE0FFF1FEE0FFF1FE15BFA4E46
:103BB000208131814281538129833A834B835C8305
:103BC000A8014F5F5F4F5C8B4B8BA5E0AE9DC001A2
:103BD000AF9D900D11249A878987FC01E00FF11F9A
:103BE000EE0FFF1FEE0FFF1FE355FC4FC080D1808B
:103BF000E280F380F101EE0FFF1FEE0FFF1FE15B8C
:103C0000FA4EA301920160817181828193810F94A8
:103C10005B016B877C878D879E87A3019201C5011D
:103C2000B4010F945B012B013C0125E0229DF001C2
:103C3000239DF00D1124F88BEF87E00FF11FEE0F9D
:103C4000FF1FEE0FFF1FE355FC4FA7019601608198
:103C50007181828193810F945B012B853C854D8519
:103C60005E850F945602A30192010E940AFBA701F0
:103C700096010F945C016B017C01E985FA854B8903
:103C80005C89E40FF51FEE0FFF1FEE0FFF1FE355DA
:103C9000FC4F80809180A280B380EF85F889E40F8B
:103CA000F51FEE0FFF1FEE0FFF1FE355FC4FA501A1
:103CB000940160817181828193810F945B012B85D6
:103CC0003C854D855E850F945602A30192010E94AA
:103CD0000AFBA50194010F945C01A70196010F94C2
:103CE0005B014B015C01EB89FC89EE0FFF1FEE0FBE
:103CF000FF1FE15BFA4E29813A814B815C81608133
:103D00007181828193810F945B019B01AC01C5019C
:103D1000B4010F9456024B015C0129813A814B8119
:103D20005C816D817E818F8198850F945B019B0101
:103D3000AC01C501B4010E940AFBA70196010F94D2
:103D40005C01A989BA892D913D914D915C910E94A8
:103D50000AFB2091A9033091AA034091AB03509133
:103D6000AC030F945C0164960FB6F894DEBF0FBEEF
:103D7000CDBFDF91CF911F910F91FF90EF90DF901A
:103D8000CF90BF90AF909F908F907F906F905F90FB
:103D90004F903F902F90089567FFD8CE60E0D6CE29
:103DA00067FFFCCE60E0FACE8F929F92AF92BF92F7
:103DB000CF92DF92EF92FF92CF93DF93EC0180904E
:103DC000140A9090150AA090160AB090170A20E0E5
:103DD00030E0A901C501B4010E94A4FA882309F4C6
:103DE00054C0C880D980EA80FB80A7019601C50134
:103DF000B4010E94A4FA18160CF04CC020910B0AD2
:103E000030910C0A40910D0A50910E0AC701B6017B
:103E10000E94A4FA882331F1C0920B0AD0920C0AB6
:103E2000E0920D0AF0920E0A20910F0A3091100ACA
:103E30004091110A5091120A688179818A819B818F
:103E40000E940AFB9B01AC0160E070E080E89FE308
:103E50000F945B0160931D0270931E0280931F02FA
:103E60009093200260911D0270911E0280911F02AA
:103E700090912002DF91CF91FF90EF90DF90CF9053
:103E8000BF90AF909F908F90089560E070E080E8C1
:103E90009FE3F0CF60E070E0CB01ECCFCF92DF92F8
:103EA000EF92FF921F93CF93DF932091180222236A
:103EB00009F48DC0EC011091BC1010FF2CC0C09013
:103EC0000002D0900102E0900202F09003022881EB
:103ED00039814A815B81C701B6010F94BC03181672
:103EE00024F4C882D982EA82FB82C0900C02D0906E
:103EF0000D02E0900E02F0900F02288139814A8174
:103F00005B81C701B6010E94A4FA87FF04C0C88282
:103F1000D982EA82FB8211FF2CC0C0900402D090AB
:103F20000502E0900602F09007022C813D814E814F
:103F30005F81C701B6010F94BC03181624F4CC822C
:103F4000DD82EE82FF82C0901002D0901102E090DC
:103F50001202F09013022C813D814E815F81C701D6
:103F6000B6010E94A4FA87FF04C0CC82DD82EE82F3
:103F7000FF8212FF2CC0C0900802D0900902E0908E
:103F80000A02F0900B02288539854A855B85C701B6
:103F9000B6010F94BC03181624F4C886D986EA86A5
:103FA000FB86C0901402D0901502E0901602F090AB
:103FB0001702288539854A855B85C701B6010E94AD
:103FC000A4FA87FF04C0C886D986EA86FB86DF91FB
:103FD000CF911F91FF90EF90DF90CF900895CF93F6
:103FE000DF93FC0126853785D901A05CBF4F8D91F9
:103FF0009C91119701968F739927E901CE5BDF4F52
:104000004881598148175907D9F34D915C91240F84
:10401000351FD9016C93A685B785A05CBF4F11965B
:104020009C938E93C689D7892881378D81E090E053
:10403000A0E0B0E004C0880F991FAA1FBB1F3A95EB
:10404000D2F7822B888381E081A30488F589E02D53
:1040500080818064808381E090E0DF91CF9108953A
:10406000FC0191A1992329F0A489B5898C9186FF3F
:10407000F9CF11A20895DC011C968D919C91FC0151
:10408000E05CFF4F4081518132962081318142179F
:10409000530781F020813181820F931FDC018C91C5
:1040A000208131812F5F3F4F2F733327318320834E
:1040B00090E008958FEF9FEF0895FC01848595852A
:1040C000FC01E05CFF4F40815181329620813181BB
:1040D0004217530741F020813181820F931FFC0169
:1040E000808190E008958FEF9FEF0895FC01248573
:1040F0003585F901E05CFF4F808191812E5B3F4F58
:10410000F90120813181805C9F4F821B930B60E419
:1041100070E00F949004089590E080E00895CF93AC
:10412000C82FCB010E94C6B78FE999E00E94C6B79D
:1041300080E999E0CC2311F085E999E00E94C6B7A7
:104140008AE0CF910C94BFB70F931F93CF93811147
:1041500013C0C42F8B010E94F1B781E297E00E9447
:10416000C6B7C8010E94C6B7CC2331F08AE0CF9110
:104170001F910F910C94BFB7CF911F910F9108958C
:1041800061E0FC0180810E94E09E8FEF0C94C6D517
:10419000DF92EF92FF920F931F93CF93DF938C01E7
:1041A000C62FD22FF32EE42ED52EFC0182810E9441
:1041B000D2D560E0F80180810E94E09E0E943AA181
:1041C0008C2F80640E94C6D58D2D0E94C6D58E2D61
:1041D0000E94C6D58F2D0E94C6D58D2F0E94C6D5B0
:1041E00087E8C11101C085E90E94C6D5CC3011F421
:1041F0000E94CBD5C0E00E94CBD5F801838387FF16
:1042000004C0CF3F11F0CF5FF6CFDF91CF911F9168
:104210000F91FF90EF90DF900895CF92DF92EF9291
:10422000FF920F931F93CF93DF93EC0189018C8151
:10423000833039F089E0440F551F661F771F8A9538
:10424000D1F79A01AB0161E1CE010E94C820882319
:1042500081F084E08983CE010E94C02010E0812F8C
:10426000DF91CF911F910F91FF90EF90DF90CF9052
:1042700008950E94F3A06B017C012CE2C20E21E0A4
:10428000D21EE11CF11C0E94CBD58B838F3F61F4C1
:104290000E94F3A06C197D098E099F0997FDF3CF49
:1042A00081E1898310E01BC08E3FE9F48FEF8EBD62
:1042B000F801D801A150BE4F0DB407FEFDCF9EB549
:1042C00091938EBDAE17BF07B9F70DB407FEFDCFB2
:1042D0008EB58C930E94CBD50E94CBD511E0CE0138
:1042E0000E94C020BCCF8FE0DCCF80916E1583FF91
:1042F00003C0846080936E150895FC01808188233B
:10430000F9F0853EE9F08E32D9F08091CA108E32F4
:10431000B9F09385892F8A7099F4987121E09031D2
:1043200009F020E080916E1520FB84F980936E15D2
:10433000903141F08085873419F481858E3711F4EE
:1043400080E0089581E00895FC0120E03EE2DB0179
:104350004D91BD01403249F0283011F4308331963F
:10436000DB0111974C91408331962F5F2B3079F709
:10437000108208950F931F93CF93DF93EC0189016F
:104380008C81833039F089E0440F551F661F771FF9
:104390008A95D1F79A01AB0168E1CE010E94C8204D
:1043A00081114AC08EEF8EBDF801C8019E5F0DB429
:1043B00007FEFDCF20812EBD0DB407FEFDCF21816C
:1043C0002EBD3296E817F90791F70DB407FEFDCF21
:1043D0008FEF0E94C6D58FEF0E94C6D50E94CBD525
:1043E0008B838F71853089F40E943AA1182F88231E
:1043F00001F120E030E0A9016DE0CE010E94C8206B
:10440000882351F086E1898305C083E18983CE0149
:104410000E94C02010E004C00E94CBD58111F2CFD1
:10442000CE010E94C020812FDF91CF911F910F916B
:10443000089587E18983F4CF86E0E5CFCF9380911B
:10444000EF12C1E08823A1F04091E7125091E812E9
:104450006091E9127091EA1227EE30E18091F0123A
:104460009091F1120E94BA21C82F811104C0C0E0BE
:104470008C2FCF9108954091EB125091EC126091E6
:10448000ED127091EE12411551056105710591F023
:1044900027EE30E18091F0129091F1120E94BA2142
:1044A000882329F31092EB121092EC121092ED1265
:1044B0001092EE121092EF12DBCFCF92DF92EF92BA
:1044C000FF92CF936B017C01C42F8091E7129091F2
:1044D000E812A091E912B091EA128C159D05AE0583
:1044E000BF0501F10E941E22811108C0C0E08C2F7F
:1044F000CF91FF90EF90DF90CF90089527EE30E1BD
:10450000B701A6018091F0129091F1120E940D2145
:10451000882361F3C092E712D092E812E092E91288
:10452000F092EA12CC2321F081E08093EF12DFCFEA
:10453000C1E0DDCF4F925F926F927F928F929F92F8
:10454000AF92BF92CF92DF92EF92FF920F931F93A1
:10455000CF93DF93EC01423051056105710590F472
:1045600080E0DF91CF911F910F91FF90EF90DF904E
:10457000CF90BF90AF909F908F907F906F905F9003
:104580004F90089589859A85AB85BC850196A11DBC
:10459000B11D84179507A607B70710F38F898031DF
:1045A000C9F5852E962EA72EBB248B899C89AD89B3
:1045B000BE89880E991EAA1EBB1E280139016A01F8
:1045C0007B0141E0C501B4010E945D22882341F2D4
:1045D0009F89903181F5DD24EE24FF24F601EE0F52
:1045E000FF1FE951FF4E118300839A89923008F42E
:1045F000B8CF4D815E816F817885840E951EA61E91
:10460000B71E8092EB129092EC12A092ED12B09233
:10461000EE12A7CF803209F0A3CF8B899C89AD8998
:10462000BE894A015B01E7E0B694A794979487940A
:10463000EA95D1F7BECFE894C7F8DD24EE24FF2435
:10464000F601EE0FFF1FEE0FFF1FE951FF4E4082F4
:10465000518262827382C9CFCF92DF92EF92FF9232
:104660000F931F93CF93DF93FC0181859285A385E0
:10467000B4850196A11DB11D84179507A607B7073C
:1046800050F480E0DF91CF911F910F91FF90EF9058
:10469000DF90CF90089587898031A9F5BB27A72F98
:1046A000962F852FC388D488E588F6888C0D9D1DAC
:1046B000AE1DBF1DE9016A017B018F014091E71228
:1046C0005091E8126091E9127091EA1284179507EF
:1046D000A607B70749F5F8018789803169F5B70161
:1046E000A601552766277727440F551F49515F4E6E
:1046F000FA0180819181B0E0A0E088839983AA8348
:10470000BB8381E0BFCF803209F0BBCFC388D488A0
:10471000E588F688DB01CA01C7E0B695A7959795AD
:104720008795CA95D1F7C2CF40E0BC01CD010E9468
:104730005D228111D0CFA5CFB701A6014F775527B4
:1047400066277727440F551F440F551F49515F4E69
:10475000FA0180819181A281B381BF70CECF4F9247
:104760005F926F927F92AF92BF92CF92DF92EF9261
:10477000FF920F931F93CF93DF9300D01F92CDB77B
:10478000DEB78C0149835A836B837C835901C12C2A
:10479000D12C7601412C82E0582E612C712C49815C
:1047A0005A816B817C819E012F5F3F4FC8010E941F
:1047B0002C23882319F1F8018585A301920104C0F7
:1047C000220F331F441F551F8A95D2F7DA01C90102
:1047D000C80ED91EEA1EFB1E49815A816B817C815D
:1047E00087898031F1F481E0483F5F4F61057105B1
:1047F000B0F2F501C082D182E282F3820F900F9075
:104800000F900F90DF91CF911F910F91FF90EF903C
:10481000DF90CF90BF90AF907F906F905F904F9060
:10482000089581E0483F5F4F6F4F7F4008F4B7CF56
:10483000E0CF0F931F93CF93DF93FC0123812223BB
:1048400031F080E0DF91CF911F910F9108958B019E
:10485000EC01FB018789803139F582E08B831D8A69
:104860001E8A1F8A188E808D918DB0E0A0E025E011
:10487000880F991FAA1FBB1F2A95D1F7898B9A8B86
:10488000AB8BBC8B1A8F098F81E0898318861986C0
:104890001A861B861C821D821E821F82188A1C8615
:1048A0001D861E861F86CECF803259F683E08B830D
:1048B000428D538D648D758D4D8B5E8B6F8B788F94
:1048C0009E012F5E3F4FC8010E94AF238111DACFB6
:1048D000B8CF8F929F92AF92BF92CF92DF92EF921A
:1048E000FF920F931F93CF93DF93EC018B81811184
:1048F0000EC080E0DF91CF911F910F91FF90EF905C
:10490000DF90CF90BF90AF909F908F9008950989CE
:104910001A892B893C89041715072607370748F39E
:104920004A015B01823031F488869986AA86BB866B
:1049300081E0E0CF81149104A104B10449F4188608
:1049400019861A861B861C821D821E821F82F0CF4A
:10495000088519852A853B85E98DFA8D858590E046
:104960000996B901A8014150510961097109082E40
:1049700004C076956795579547950A94D2F77501C7
:104980006401E1E0CE1AD108E108F10804C0F69410
:10499000E794D794C7948A95D2F7C416D506E6064D
:1049A000F70620F0012B022B032B11F58D899E8930
:1049B000AF89B88D8C839D83AE83BF838E010C5FDE
:1049C0001F4FC114D104E104F10409F4ADCF4C81AF
:1049D0005D816E817F819801898D9A8D0E942C2343
:1049E00091E0C91AD108E108F1088111EACF81CF1D
:1049F000C41AD50AE60AF70AE1CF40E050E0BA014E
:104A00000C9469243F924F925F926F927F928F92A3
:104A10009F92AF92BF92CF92DF92EF92FF920F934D
:104A20001F93CF93DF93CDB7DEB72C970FB6F894D3
:104A3000DEBF0FBECDBF5C01DC0159968D909C900E
:104A4000F40181859285A385B4859C01AD012F5F1A
:104A50003F4F4F4F5F4F29873A874B875C87D50180
:104A600014964D905D906D907C9017974114510471
:104A70006104710409F459C0BFEF4B1A5B0A6B0A59
:104A80007B0A312C730162011D821E821F821886EF
:104A9000F40181859285A385B4852D813E814F8166
:104AA0005885281739074A075B0708F056C08985DB
:104AB0009A85AB85BC858C159D05AE05BF0550F468
:104AC00082E0C82ED12CE12CF12C92E0492E512C01
:104AD000612C712C9E012F5F3F4FB701A601C401CD
:104AE0000E942C238823C9F189819A81AB81BC81E2
:104AF000892B8A2B8B2B01F1260137019FEF491A55
:104B0000590A690A790A2D813E814F8158852F5FA4
:104B10003F4F4F4F5F4F2D833E834F8358873FEF6B
:104B2000C31AD30AE30AF30AB3CF408051806280EC
:104B3000738033243394A6CFC414D504E604F70459
:104B400011F70FEF1FEF2FEF3FE0B701A601C401F0
:104B50000E949A22782E81111AC0712C872D2C96D2
:104B60000FB6F894DEBF0FBECDBFDF91CF911F917E
:104B70000F91FF90EF90DF90CF90BF90AF909F90FC
:104B80008F907F906F905F904F903F900895F501C8
:104B90004481558166817781411551056105710513
:104BA00039F097018601C4010E949A228823A9F254
:104BB000D5011496CD92DD92ED92FC921797332099
:104BC00051F0D701C6010196A11DB11DF4018083EA
:104BD0009183A283B383F50185899689A789B08DD6
:104BE000892B8A2B8B2B09F0B9CFC58AD68AE78A05
:104BF000F08E818180688183B1CF2F923F924F9256
:104C00005F926F927F928F929F92AF92BF92CF925C
:104C1000DF92EF92FF920F931F93CF93DF9300D019
:104C20001F92CDB7DEB79C838B834B017A01DC01E9
:104C300013968C91811119C08FEF9FEF0F900F90F9
:104C40000F900F90DF91CF911F910F91FF90EF90F8
:104C5000DF90CF90BF90AF909F908F907F906F909C
:104C60005F904F903F902F900895EB81FC81818160
:104C700080FFE2CF81899289A389B48940855185DB
:104C800062857385841B950BA60BB70BA70170E09B
:104C900060E084179507A607B70708F47C01670151
:104CA0008B819C8104969A838983612C32E0732ED8
:104CB000C114D10409F4B7C0AB81BC8118964D91E1
:104CC0005D916D917C911B975A01B1E0BB22EB8104
:104CD000FC81818D928D1A012B0129E05694479415
:104CE000379427942A95D1F72381223091F5DC015E
:104CF0005A966D917D918D919C915D97620D731D7A
:104D0000841D951D83010A191B09C016D10608F4DC
:104D100086010115B2E01B0771F42091E712309172
:104D2000E8124091E9125091EA1262177307840762
:104D3000950709F059C040E00E945D22882309F4DC
:104D40007BCFB50169517F4EA801C4010F94B7050F
:104D500057C0FC01148111501221A114B10481F437
:104D600011110EC0452B462B472B79F5EB81FC81A9
:104D700085899689A789B08D84839583A683B78317
:104D8000AB81BC815996ED91FC915A9714966D9127
:104D90007D918D919C9117976250710981099109BC
:104DA000258504C0660F771F881F991F2A95D2F7A3
:104DB0002685378540895189620F731F841F951F8F
:104DC000610F711D811D911D9DCFAB81BC8114961A
:104DD0004D915D916D917C91179729813A810E9447
:104DE0002C238111CDCF28CF9401AB01BC01809140
:104DF000F0129091F1120E940D21882309F41CCF2A
:104E0000800E911EEB81FC8180859185A285B38502
:104E1000800F911FA11DB11D80879187A287B38745
:104E2000C01AD10A45CFC70109CFDF92EF92FF9296
:104E30000F931F93CF93DF93FC012381223008F45B
:104E400070C000851185228533850F7111272227B7
:104E50003327012B022B032B09F063C041155105A9
:104E600011F0FA0110827A01EB018C018DE0D82E4D
:104E700040E250E0BE01C8010E94FD25803291054C
:104E800071F021E0892B09F420E0822F8195DF91D8
:104E9000CF911F910F91FF90EF90DF90089528819F
:104EA000222309F440C0253E11F02E3231F4E114E2
:104EB000F104F1F2F7011082DBCFE114F10439F1D2
:104EC0003B853F733F3019F54A8D5B8D452BF9F4D7
:104ED0002F713FEF320F3230D0F42150330BD29E7E
:104EE000C001D39E900D1124D701A80FB91FFE0158
:104EF00020E0AD01253078F431813D932F5F32966B
:104F00002D30C1F7288126FF02C0FA0115862B85B6
:104F100023FDAECFBCCF2B3010F43481EECF3681E1
:104F2000ECCF8FEFB4CF80E0B2CFCF93DF93EC0123
:104F3000462F41706C857D858E859F850E945D2200
:104F4000882351F0888920E2829FC0011124895171
:104F50009F4EDF91CF91089590E080E0FACFCF93FC
:104F6000DF93EB01FC012381211104C080E0DF917C
:104F7000CF9108952250223028F48FE2888319823D
:104F800081E0F5CF60E00E949527009779F3DC017E
:104F900060E080E09EE22D91203299F0883031F47B
:104FA0009E01260F311DF90190836F5F9E01260F30
:104FB000311DAD0141505109FA014081F901408391
:104FC0006F5F8F5F8B3039F7FE01E60FF11D1082A6
:104FD000D7CFCF93DF93EC01CB01E881F9816081DA
:104FE00071810E94AF2728813981D901ED91FC910F
:104FF000AA81BB818C919081992359F08936C8F49C
:10500000CF010196F901918380838C918F5F8C93FE
:10501000EACF893670F48FE28083E881F98180815C
:105020009181019691838083EA81FB8180818F5FEA
:105030008083DF91CF910895CF93DF93EC018B8133
:10504000882349F1898187FF22C061E0CE010E9457
:105050009527FC01892BF9F08081853EE1F08B8159
:10506000823040F489899A89AB89BC89848F958F75
:10507000A68FB78F8D899E89938F828F8D899E8908
:10508000AF89B88DB58BA48B89818F778983DF91A8
:10509000CF910C941E2281E0888380E0DF91CF9134
:1050A0000895CF93DF93EC010E941C281B82DF91AF
:1050B000CF9108951092350480916E158F7B8B7F70
:1050C00080936E150E9455B1882321F080ED98E100
:1050D0000C94512808958F929F92AF92BF92CF92D5
:1050E000DF92EF92FF92CF9380916E15877F80932E
:1050F0006E158091AA17882321F087EA97E10E9414
:105100005128109247141092441485E3809343145D
:105110000E94F3A06B017C0120EDC20E27E0D21E9D
:10512000E11CF11CA89561E0809143140E94E09E6F
:1051300061E0809143140E94AD9F209A289A219AA1
:105140002398229A81E00E94D2D585E0809345146D
:105150000E94D2D5CAE08FEF0E94C6D5C150D9F7C0
:10516000A89520E030E0A90160E083E494E10E948A
:10517000C82080934614813001F10E94F3A06C197D
:105180007D098E099F0997FDECCF81E0809344143F
:1051900083E494E10E94C0200E94F1B783E797E185
:1051A0000E94C6B7CF91FF90EF90DF90CF90BF9055
:1051B000AF909F908F900C944AB0A8952AEA31E066
:1051C00040E050E068E083E494E10E94C82085302C
:1051D00069F581E080934714A89580914714812C4C
:1051E000912C5401823029F4812C912CA12C80E443
:1051F000B82E20E030E0A90167E383E494E10E9447
:10520000C820A501940169E283E494E10E94C820CA
:10521000809346148823F9F00E94F3A06C197D094D
:105220008E099F0997FDE5CF8AE0B0CFC4E00E94C8
:10523000CBD580934614C150D1F78A3A11F482E05D
:10524000C9CF0E94F3A06C197D098E099F0997FDB3
:10525000B5CF82E09BCF809147148230D1F420E01B
:1052600030E0A9016AE383E494E10E94C820882326
:1052700011F088E08BCF0E94CBD5807C803C19F464
:1052800083E0809347140E94CBD50E94CBD50E9427
:10529000CBD583E494E10E94C0201092451481E0B4
:1052A0000E94838B81110AC080E00E94838B811150
:1052B00005C00E94EDB78FE597E172CF65E274E11A
:1052C00087EA97E10E941924811105C00E94EDB779
:1052D0008EE497E165CF80916E15886080936E159E
:1052E0000E94F1B782E497E15BCFFC012381211199
:1052F0000C94512808954F925F926F927F92AF92D3
:10530000BF92CF92DF92EF92FF920F931F93CF93B2
:10531000DF931F92CDB7DEB78C017B015A01C22EFD
:10532000DB0159968D919C91F801928F818FCB0171
:105330000E94FD24712CF70180859185A285B3859B
:10534000418952896389748984179507A607B7072D
:1053500008F052C055E0B695A795979587955A9550
:10536000D1F7F82FFF70DF2ED70113968C91823082
:1053700010F480E0DBC041E050E0BE016F5F7F4F82
:10538000C7010E94FD250197A1F7F701808591854E
:10539000A285B3854F96A11DB11D80879187A287F5
:1053A000B387F0E2DF9EB001112469517F4E611591
:1053B0007105F9F2DB018C91882341F0853E09F0FB
:1053C0004CC0772029F077247394B5CF71100EC0AC
:1053D0008091E7129091E812A091E912B091EA123F
:1053E000F80184879587A687B787D08ADB018C91DF
:1053F0008111E9CF772473948C2D8274823409F063
:10540000B8CF772009F4A2C0F801D08861E0C801C4
:105410000E949527009709F4ACCF20E2DC011D9291
:105420002A95E9F72BE0F501DC0101900D922A9510
:10543000E1F721E238E2FC01318B208B40E058E0BB
:1054400057874687338B228B318F208F578B468B24
:105450000E941E22811109C08CCF4BE050E0C50193
:105460000F94AA05892B09F066CFF0E2DF9ED001E8
:1054700011249D0129513F4EF9018385817121F04D
:105480008C2D827109F0FCC0F801818D928D4091C4
:10549000E7125091E8126091E9127091EA12448784
:1054A000558766877787D08AFD01E951FF4E44888A
:1054B0005588712C612C320155244424D80155960D
:1054C0004D925D926D927C925897428D538D70E013
:1054D00060E0442955296629772955964D935D93B7
:1054E0006D937C935897D9011B962C91287109F0E4
:1054F000B9C0848D958DA68DB78DF801818B928B67
:10550000A38BB48B81E083838C2D8F70F801818312
:1055100014821582168217821086118612861386CF
:1055200081E0C4FE03C0C8010E9412890F90DF9180
:10553000CF911F910F91FF90EF90DF90CF90BF9090
:10554000AF907F906F905F904F900895D701139622
:105550008C911397823009F40CCF51968D919D91C7
:105560000D90BC91A02D803E9F4FAF41B10508F03A
:1055700000CFC7010E940225882309F4FACE0E94B9
:105580001E22882309F4F5CED7015996ED91FC919E
:105590005A9714964D905D906D907C901797B2E05D
:1055A0004B1A510861087108858504C0440C551CCC
:1055B000661C771C8A95D2F786859785A089B18964
:1055C000480E591E6A1E7B1E81E08093EF124092A6
:1055D000E7125092E8126092E9127092EA12E7EE36
:1055E000F0E180E092E0DF019C011D92215030400B
:1055F000E1F7DD24D394D7015996ED91FC91848194
:10560000D81698F427EE30E1B301A2014D0D511DDB
:10561000611D711D8091F0129091F1120E94BA21CA
:10562000882309F4A6CED394E6CF258580E092E0C6
:10563000A0E0B0E004C0880F991FAA1FBB1F2A95E5
:10564000D2F7F7014189528963897489840F951FC4
:10565000A61FB71F818B928BA38BB48B87EE90E133
:10566000D12CDBCE203161F498012F5E3F4F0E9498
:10567000AF23882329F084E0D80113968C9344CF7C
:10568000D80113961C9275CE2F923F924F925F9243
:105690006F927F928F929F92AF92BF92CF92DF9242
:1056A000EF92FF920F931F93CF93DF93CDB7DEB7A7
:1056B000C354D1090FB6F894DEBF0FBECDBF4C0165
:1056C0005B016A01222E19821C821C8E1F8E6115BD
:1056D000710521F510E0CE014C960E947529CE018E
:1056E00001960E947529812FCD5BDF4F0FB6F8948C
:1056F000DEBF0FBECDBFDF91CF911F910F91FF9005
:10570000EF90DF90CF90BF90AF909F908F907F9061
:105710006F905F904F903F902F900895FC01838190
:105720008111D8CFFA0180818F32A9F18B01CE018E
:1057300001967C013C0180E2382E2E019CE1490E4D
:10574000511C2396EFAE23972496FFAE2497229602
:105750003FAE229721963FAE21973FAE3EAE3DAE83
:105760003CAE3BAE3AAE39AE38AE3FAA960190E0C1
:1057700047E0D9018D91882309F448C08F3209F49C
:1057800045C0282F8E3209F54A3009F4A3CF98E09E
:105790004AE09D01EECFFB01838182508B01823074
:1057A00060F0618D728DCE014C960E9419248E019D
:1057B000045E1F4F882309F48DCFC6016C0101964A
:1057C000F60120812F32D1F3B2CFEEE1F7E134912F
:1057D000332321F031968313FACF7CCF491708F495
:1057E00079CF813208F476CF8F3709F473CF3FE950
:1057F000380F3A3110F420EE280FE7E3F0E0EC0F19
:10580000FD1FE90FF11D20839F5FC3CF8FA9803259
:1058100009F460CF6901F90180812F5F3F4F8F321A
:10582000C9F3882301F121E0AE01495C5F4FB80163
:10583000C7010E947B29882309F44CCF0A151B0558
:1058400019F0C8010E945128942D852D6E147F04F3
:1058500031F023969FAD239724968FAD249787012F
:10586000E92EF82E74CF222DAE01495C5F4FB801AE
:10587000C4010E947B29182F2ECF0F931F93CF9323
:10588000DF931F921F92CDB7DEB720916E1523FFD5
:105890002FC08C01BC0182E00E942CB010926515D3
:1058A0000E945A28A801BE016F5F7F4F80E00E94CE
:1058B000A6898C010097E1F069817A8126E5AC0127
:1058C00080ED98E10E94442B8823C9F080916E15E9
:1058D000816080936E15C8010E9459B010926315C3
:1058E000B80185E298E10E94DAB78AE00E94BFB76A
:1058F0000F900F90DF91CF911F910F910895B801F4
:105900008AE398E10E94DAB787E398E10E94C6B77C
:10591000EFCFEF92FF920F931F93CF93DF9300D0BF
:1059200000D01F92CDB7DEB720916E1523FF57C070
:10593000F62E8C0181E0681709F465C0681708F439
:105940005BC082E0681709F4E1C00E945A28A801F0
:10595000BE016F5F7F4F81E00E94A6898C01009796
:10596000F1F169817A8121E0AC0180ED98E10E943A
:10597000442B882309F4D1C08091E1189091E2185A
:10598000A091E318B091E418809366159093671581
:10599000A0936815B093691510926A1510926B1553
:1059A00010926C1510926D15B80188E997E10E946C
:1059B000DAB740916615509167156091681570913E
:1059C000691580E997E10E94ECC28AE00E94BFB7A6
:1059D00081E897E10E94C6B7C8010E9459B0279696
:1059E0000FB6F894DEBF0FBECDBFDF91CF911F91F0
:1059F0000F91FF90EF900895B80182E00E942CB0C3
:105A000010926515A2CF0E9455B1811105C0B80151
:105A100081E00E942CB099CFE0906515EE2049F00E
:105A20000E94EDB780EE97E10E94C6B780E00E9429
:105A30003E888BE394E09E838D838FE280933A04CB
:105A4000FF82CE0105969A83898302969C838B837D
:105A50008BE1F82E80916415E81658F4EF9CB001A4
:105A600011246E53784ECE0101960E94E927E394EB
:105A7000F1CF8F818B3558F460ED78E1CE0101963E
:105A80000E94E9278D819E8101979E838D83ED8100
:105A9000FE811082E091651584E0E89FF0011124F9
:105AA000EA5CFB4F80916A1590916B15A0916C1583
:105AB000B0916D1580839183A283B3830E94F1B767
:105AC000B80187EC97E10E94DAB76091651589E625
:105AD000689FB0011124665C7B4F8CEB97E10E94BC
